{
  "contractName": "Casino",
  "abi": [
    {
      "constant": true,
      "inputs": [],
      "name": "numberOfBets",
      "outputs": [
        {
          "name": "",
          "type": "uint256"
        }
      ],
      "payable": false,
      "stateMutability": "view",
      "type": "function"
    },
    {
      "constant": true,
      "inputs": [
        {
          "name": "",
          "type": "address"
        }
      ],
      "name": "playerInfo",
      "outputs": [
        {
          "name": "amountBet",
          "type": "uint256"
        },
        {
          "name": "numberSelected",
          "type": "uint256"
        }
      ],
      "payable": false,
      "stateMutability": "view",
      "type": "function"
    },
    {
      "constant": true,
      "inputs": [],
      "name": "maxAmoutOfBets",
      "outputs": [
        {
          "name": "",
          "type": "uint256"
        }
      ],
      "payable": false,
      "stateMutability": "view",
      "type": "function"
    },
    {
      "constant": true,
      "inputs": [],
      "name": "owner",
      "outputs": [
        {
          "name": "",
          "type": "address"
        }
      ],
      "payable": false,
      "stateMutability": "view",
      "type": "function"
    },
    {
      "constant": true,
      "inputs": [],
      "name": "minimumBet",
      "outputs": [
        {
          "name": "",
          "type": "uint256"
        }
      ],
      "payable": false,
      "stateMutability": "view",
      "type": "function"
    },
    {
      "constant": true,
      "inputs": [
        {
          "name": "",
          "type": "uint256"
        }
      ],
      "name": "players",
      "outputs": [
        {
          "name": "",
          "type": "address"
        }
      ],
      "payable": false,
      "stateMutability": "view",
      "type": "function"
    },
    {
      "constant": true,
      "inputs": [],
      "name": "totalBet",
      "outputs": [
        {
          "name": "",
          "type": "uint256"
        }
      ],
      "payable": false,
      "stateMutability": "view",
      "type": "function"
    },
    {
      "inputs": [
        {
          "name": "_minimumBet",
          "type": "uint256"
        }
      ],
      "payable": false,
      "stateMutability": "nonpayable",
      "type": "constructor"
    },
    {
      "payable": true,
      "stateMutability": "payable",
      "type": "fallback"
    },
    {
      "constant": false,
      "inputs": [],
      "name": "kill",
      "outputs": [],
      "payable": false,
      "stateMutability": "nonpayable",
      "type": "function"
    },
    {
      "constant": true,
      "inputs": [
        {
          "name": "player",
          "type": "address"
        }
      ],
      "name": "checkPlayerExists",
      "outputs": [
        {
          "name": "",
          "type": "bool"
        }
      ],
      "payable": false,
      "stateMutability": "view",
      "type": "function"
    },
    {
      "constant": false,
      "inputs": [
        {
          "name": "winningNumber",
          "type": "uint256"
        }
      ],
      "name": "distributePrizes",
      "outputs": [],
      "payable": false,
      "stateMutability": "nonpayable",
      "type": "function"
    },
    {
      "constant": false,
      "inputs": [],
      "name": "generateNumberWinner",
      "outputs": [],
      "payable": false,
      "stateMutability": "nonpayable",
      "type": "function"
    },
    {
      "constant": false,
      "inputs": [
        {
          "name": "numberSelected",
          "type": "uint256"
        }
      ],
      "name": "bet",
      "outputs": [],
      "payable": true,
      "stateMutability": "payable",
      "type": "function"
    }
  ],
  "bytecode": "0x6080604052606460045534801561001557600080fd5b50604051602080610a3683398101806040528101908080519060200190929190505050336000806101000a81548173ffffffffffffffffffffffffffffffffffffffff021916908373ffffffffffffffffffffffffffffffffffffffff16021790555060008114151561008a57806001819055505b5061099c8061009a6000396000f3006080604052600436106100ba576000357c0100000000000000000000000000000000000000000000000000000000900463ffffffff1680630a50e361146100bc5780632ca8c6d3146100d35780634081d916146100fe57806341c0e1b5146101595780634b114691146101705780636ca3fc3b146101ce5780637365870b146101fb57806381d76b761461021b5780638da5cb5b14610246578063c38a8afd1461029d578063f71d96cb146102c8578063fe5e185314610335575b005b3480156100c857600080fd5b506100d1610360565b005b3480156100df57600080fd5b506100e8610380565b6040518082815260200191505060405180910390f35b34801561010a57600080fd5b5061013f600480360381019080803573ffffffffffffffffffffffffffffffffffffffff169060200190929190505050610386565b604051808215151515815260200191505060405180910390f35b34801561016557600080fd5b5061016e610429565b005b34801561017c57600080fd5b506101b1600480360381019080803573ffffffffffffffffffffffffffffffffffffffff1690602001909291905050506104ba565b604051808381526020018281526020019250505060405180910390f35b3480156101da57600080fd5b506101f9600480360381019080803590602001909291905050506104de565b005b61021960048036038101908080359060200190929190505050610715565b005b34801561022757600080fd5b50610230610864565b6040518082815260200191505060405180910390f35b34801561025257600080fd5b5061025b61086a565b604051808273ffffffffffffffffffffffffffffffffffffffff1673ffffffffffffffffffffffffffffffffffffffff16815260200191505060405180910390f35b3480156102a957600080fd5b506102b261088f565b6040518082815260200191505060405180910390f35b3480156102d457600080fd5b506102f360048036038101908080359060200190929190505050610895565b604051808273ffffffffffffffffffffffffffffffffffffffff1673ffffffffffffffffffffffffffffffffffffffff16815260200191505060405180910390f35b34801561034157600080fd5b5061034a6108d3565b6040518082815260200191505060405180910390f35b60006001600a4381151561037057fe5b0601905061037d816104de565b50565b60035481565b600080600090505b60058054905081101561041e578273ffffffffffffffffffffffffffffffffffffffff166005828154811015156103c157fe5b9060005260206000200160009054906101000a900473ffffffffffffffffffffffffffffffffffffffff1673ffffffffffffffffffffffffffffffffffffffff1614156104115760019150610423565b808060010191505061038e565b600091505b50919050565b6000809054906101000a900473ffffffffffffffffffffffffffffffffffffffff1673ffffffffffffffffffffffffffffffffffffffff163373ffffffffffffffffffffffffffffffffffffffff1614156104b8576000809054906101000a900473ffffffffffffffffffffffffffffffffffffffff1673ffffffffffffffffffffffffffffffffffffffff16ff5b565b60066020528060005260406000206000915090508060000154908060010154905082565b6104e66108fb565b6000806000806000809450600093505b6005805490508410156106375760058481548110151561051257fe5b9060005260206000200160009054906101000a900473ffffffffffffffffffffffffffffffffffffffff16925086600660008573ffffffffffffffffffffffffffffffffffffffff1673ffffffffffffffffffffffffffffffffffffffff1681526020019081526020016000206001015414156105d85782868660648110151561059857fe5b602002019073ffffffffffffffffffffffffffffffffffffffff16908173ffffffffffffffffffffffffffffffffffffffff168152505084806001019550505b600660008473ffffffffffffffffffffffffffffffffffffffff1673ffffffffffffffffffffffffffffffffffffffff1681526020019081526020016000206000808201600090556001820160009055505083806001019450506104f6565b606460025481151561064557fe5b049150600090505b8481101561070457600073ffffffffffffffffffffffffffffffffffffffff16868260648110151561067b57fe5b602002015173ffffffffffffffffffffffffffffffffffffffff161415156106f75785816064811015156106ab57fe5b602002015173ffffffffffffffffffffffffffffffffffffffff166108fc839081150290604051600060405180830381858888f193505050501580156106f5573d6000803e3d6000fd5b505b808060010191505061064d565b61070c6108d9565b50505050505050565b61071e33610386565b15151561072a57600080fd5b6001811015801561073c5750600a8111155b151561074757600080fd5b600154341015151561075857600080fd5b604080519081016040528034815260200182815250600660003373ffffffffffffffffffffffffffffffffffffffff1673ffffffffffffffffffffffffffffffffffffffff168152602001908152602001600020600082015181600001556020820151816001015590505060036000815480929190600101919050555060053390806001815401808255809150509060018203906000526020600020016000909192909190916101000a81548173ffffffffffffffffffffffffffffffffffffffff021916908373ffffffffffffffffffffffffffffffffffffffff160217905550503460026000828254019250508190555060045460035410151561086157610860610360565b5b50565b60045481565b6000809054906101000a900473ffffffffffffffffffffffffffffffffffffffff1681565b60015481565b6005818154811015156108a457fe5b906000526020600020016000915054906101000a900473ffffffffffffffffffffffffffffffffffffffff1681565b60025481565b60006005816108e8919061091f565b5060006002819055506000600381905550565b610c8060405190810160405280606490602082028038833980820191505090505090565b81548183558181111561094657818360005260206000209182019101610945919061094b565b5b505050565b61096d91905b80821115610969576000816000905550600101610951565b5090565b905600a165627a7a72305820499288362c99ce528e42751fdfa3fc1e434c2929c9ce982cc1a2d3303036251a0029",
  "source": "pragma solidity 0.4.22;\n\ncontract Casino {\n\n    address public owner;\n    uint public minimumBet;\n    uint public totalBet;\n    uint public numberOfBets;\n    uint public maxAmoutOfBets = 100;\n    address[] public players;\n\n    struct Player {\n        uint amountBet;\n        uint numberSelected;\n    }\n\n    // player to user info\n    mapping(address => Player) public playerInfo;\n\n    // Set creator of contract as owner\n    constructor(uint _minimumBet) public {\n        owner = msg.sender;\n        if(_minimumBet != 0)\n            minimumBet = _minimumBet;\n    }\n\n    function kill() public {\n        if(msg.sender == owner)\n            selfdestruct(owner);\n    }\n\n    // Fallback function in case someone sends ether to the contract \n    // will be distributed in each game\n    function() public payable {}\n\n    // A player can only play once per game\n    function checkPlayerExists(address player) public view returns(bool) {\n        for(uint i=0; i<players.length; i++) {\n            if(players[i] == player)\n                return true;\n        }\n\n        return false;\n    }\n\n    // Reset the game\n    function resetData() private {\n        players.length = 0;\n        totalBet = 0;\n        numberOfBets = 0;\n    }\n\n    // Payout the winners and reset the game\n    function distributePrizes(uint winningNumber) public {\n        // Create temp array in memory\n        address[100] memory winners;\n        uint count = 0;\n\n        for(uint i=0; i<players.length; i++) {\n            address playerAddress = players[i];\n            if(playerInfo[playerAddress].numberSelected == winningNumber) {\n                winners[count] = playerAddress;\n                count++;\n            }\n\n            delete playerInfo[playerAddress];\n        }\n\n        // Winners' pot is split amongst the victors\n        uint winnerAmountEth = totalBet / winners.length;\n\n        // Send ETH to winners\n        for(uint j=0; j<count; j++) {\n            if(winners[j] != address(0)) {\n                // Check that the address is not empty\n                winners[j].transfer(winnerAmountEth);\n            }\n        }\n\n        resetData();\n    }\n\n    // Generates a number between 1 and 10 that will be the winner\n    function generateNumberWinner() public {\n        uint winningNumber = block.number % 10 + 1; // This is not secure\n        distributePrizes(winningNumber);\n    }\n\n    // Number has to be between 1 and 10 inclusive\n    function bet(uint numberSelected) public payable {\n        require(!checkPlayerExists(msg.sender));\n        require(numberSelected >=1 && numberSelected <= 10);\n        require(msg.value >= minimumBet);\n\n        playerInfo[msg.sender] = Player(msg.value, numberSelected);\n        numberOfBets++;\n        players.push(msg.sender);\n        totalBet += msg.value;\n\n        // Check if this is the last bet\n        if(numberOfBets >= maxAmoutOfBets)\n            generateNumberWinner();\n    }\n}",
  "sourcePath": "/Users/hmadolid/Development/Tutorials/casino-ethereum/contracts/Casino.sol",
  "compiler": {
    "name": "solc",
    "version": "0.4.22+commit.4cb486ee.Emscripten.clang"
  },
  "schemaVersion": "3.1.0",
  "updatedAt": "2022-03-09T02:17:54.538Z",
  "devdoc": {
    "methods": {}
  },
  "userdoc": {
    "methods": {}
  }
}